{
  "contractName": "MySolution",
  "abi": [
    {
      "inputs": [],
      "name": "addLiquidity",
      "outputs": [],
      "stateMutability": "nonpayable",
      "type": "function"
    },
    {
      "inputs": [],
      "name": "withdrawLiquidity",
      "outputs": [],
      "stateMutability": "nonpayable",
      "type": "function"
    },
    {
      "inputs": [],
      "name": "swapYourTokenForDummyToken",
      "outputs": [],
      "stateMutability": "nonpayable",
      "type": "function"
    },
    {
      "inputs": [],
      "name": "swapYourTokenForEth",
      "outputs": [],
      "stateMutability": "nonpayable",
      "type": "function"
    }
  ],
  "bytecode": "0x608060405234801561001057600080fd5b5060a98061001f6000396000f3fe6080604052348015600f57600080fd5b506004361060465760003560e01c80637c587b2214604b5780637ea382c1146053578063c4a8599314605b578063e8078d94146063575b600080fd5b6051606b565b005b6059606d565b005b6061606f565b005b60696071565b005b565b565b565b56fea26469706673582212201512ea355151884eebc215920f5e2c57ae8e6462e79a7ef7dd522d1ad1fcf23a64736f6c63430006020033",
  "source": "pragma solidity >=0.6.0;\r\n\r\nimport \"./IExerciceSolution.sol\";\r\n\r\ncontract MySolution is IExerciceSolution \r\n{\r\n\tfunction addLiquidity() external override {\r\n\r\n    }\r\n\r\n\tfunction withdrawLiquidity() external override {\r\n\r\n    }\r\n\r\n\tfunction swapYourTokenForDummyToken() external override {\r\n\r\n    }\r\n\r\n\tfunction swapYourTokenForEth() external override {\r\n\r\n    }\r\n}\r\n",
  "sourcePath": "D:\\Dossier Alexis\\Administratif\\Ecole\\Cours\\S8\\Decentralized Finance\\TD2\\amm-101\\contracts\\MySolution.sol",
  "compiler": {
    "name": "solc",
    "version": "0.6.2+commit.bacdbe57.Emscripten.clang"
  },
  "schemaVersion": "3.4.4",
  "updatedAt": "2022-02-10T14:47:23.409Z",
  "networkType": "ethereum",
  "devdoc": {
    "methods": {}
  },
  "userdoc": {
    "methods": {}
  }
}